:10100000C08A0020197F0000FBD50100057F000089
:10101000057F0000057F0000057F00000000000044
:1010200000000000000000000000000085800000BB
:10103000057F00000000000031800000057F0000F7
:1010400031820000C7FB01003182000031820000C4
:1010500031820000318200003182000031820000C4
:101060007DFB01003182000031820000B1FB0100F4
:1010700031820000318200003182000031820000A4
:101080003182000031820000318200003182000094
:101090003182000031820000318200003182000084
:1010A0003182000031820000318200003182000074
:1010B0003182000031820000318200003182000064
:1010C0003182000031820000318200003182000054
:1010D0003182000031820000318200003182000044
:1010E0003182000031820000318200003182000034
:1010F0003182000031820000318200003182000024
:1011000001F0FF01102A2BDB10F0070F08D010F8B8
:10111000013B013A8B422DD010F0070F42B3F6D1BC
:10112000F0B441EA012141EA014122F007047FF0D5
:1011300000070023F0E80256083C85EA010586EA2C
:10114000010685FA47F5A3FA87F586FA47F6A5FA68
:1011500087F68EB9EED1F0BC01F0FF0102F0070274
:1011600032B110F8013B013A83EA010313B1F8D11F
:101170000020704701387047002D06BF3546033800
:10118000073815F0010F07D1013015F4807F02BF39
:10119000013015F4C03F0130F0BC0138704700BF8A
:1011A0002DE9F14F03F11C0402EB840C4FEA930B81
:1011B0008A68CB680868496800F046F93CE9F000A5
:1011C0006040694072407B400BF1060E4EE083EABE
:1011D000134480EA134582EA134746BA96EA344438
:1011E000604000F00F1684EA063420F00F1684EAFF
:1011F000161054BA94EA0106724002F00F1486EAFF
:10120000043622F00F1486EA14124CBA6540694085
:1012100001F00F1485EA043521F00F1485EA14114A
:101220005CBA67407B4003F00F1487EA043723F071
:101230000F1487EA141344BA44404DBA4D4056BACD
:1012400056405FBA5F4087EA174886EA174B84EA40
:1012500017464FEA38488BEA1B4485EA1B4788EA61
:101260001B4580EA3440694072407B4000F0703496
:1012700000F0803500F00F3040EA440040EAD5002D
:1012800080EA900404F0332480EA8400604001F096
:10129000703401F0803501F00F3141EA440141EA38
:1012A000D50181EA910404F0332481EA840161408C
:1012B00002F0703402F0803502F00F3242EA44024C
:1012C00042EAD50282EA920404F0332482EA8402DC
:1012D000624003F0703403F0803503F00F3343EACB
:1012E000440343EAD50383EA930404F0332483EAF6
:1012F00084036340C943DB4381EA000483EA044674
:1013000086EA020183EA014382EA334583EA144311
:101310005C4084EA00077FEA040A8AEA024A8AEA11
:10132000010B87EA11488AEA374A80EA060181EA16
:101330001A418AEA030A04EA0A00454088EA0407D7
:1013400007EA0B0041408AEA0B0608EA060084EA35
:1013500034428AEA3A4602EA060358404540414090
:1013600087EA37438BEA3B4003EA000985EA09052F
:1013700082EA0309464006EA0906714085EA01004F
:1013800005EA3546464006EA314181EA304181EAC4
:10139000364606EA304686EA354634400F4086EA4D
:1013A000010508EA050886EA3640024088EA020894
:1013B00081EA314213405C4080EA020309EA0309F2
:1013C00087EA0907674088EA040806EA0A0601EA8C
:1013D0000B018AEA0B0425408AEA3A442040454042
:1013E0008BEA3B4B02EA0B02564084EA0B04234093
:1013F00059406E40694087EA364080EA384080EACA
:10140000060380EA104481EA134585EA344585EAFB
:1014100017427D4082EA354180EA05403CE9F00010
:101420006040694072407B40BEF1010E3FF6CFAE96
:1014300020BC00F05FF828606960AA60EB60BDE83E
:10144000F08F00BF00F000BA80EA101404F0F0142E
:1014500080EA0410604081EA111404F0F01481EA7B
:101460000411614082EA121404F0F01482EA0412BA
:10147000624083EA131404F0F01483EA0413634017
:1014800080EA102404F47F4480EA0420604081EA6A
:10149000112404F47F4481EA0421614082EA122489
:1014A00004F47F4482EA0422624083EA132404F4B1
:1014B0007F4483EA0423634081EA500404F05534F6
:1014C00080EA4400614083EA520404F0553482EA21
:1014D0004402634082EA900404F0333480EA8400DA
:1014E000624083EA910404F0333481EA840163406A
:1014F000704700BF82EA900404F0333480EA84002D
:10150000624083EA910404F0333481EA8401634049
:1015100081EA500404F0553480EA4400614083EAD3
:10152000520404F0553482EA4402634080EA1024F5
:1015300004F47F4480EA0420604081EA112404F42A
:101540007F4481EA0421614082EA122404F47F444A
:1015500082EA0422624083EA132404F47F4483EA8B
:101560000423634080EA101404F0F01480EA0410AD
:10157000604081EA111404F0F01481EA0411614022
:1015800082EA121404F0F01482EA0412624083EA40
:10159000131404F0F01483EA04136340704700BF8F
:1015A0002DE9F14F94464FEA930B8A68CB6808689F
:1015B0004968FFF749FF0BF1060E33E083EA134455
:1015C00080EA134582EA134746BA96EA34446040FB
:1015D00000F00F1684EA063420F00F1684EA161085
:1015E00054BA94EA0106724002F00F1486EA0436F7
:1015F00022F00F1486EA14124CBA6540694001F0DB
:101600000F1485EA043521F00F1485EA14115CBA31
:1016100067407B4003F00F1487EA043723F00F1470
:1016200087EA1413BCE8F0006040694072407B40D8
:1016300000F0E03400F0103500F00F3040EA5400C4
:1016400040EAC50080EA900404F0332480EA840074
:10165000604001F0E03401F0103501F00F3141EA53
:10166000540141EAC50181EA910404F0332481EA7E
:101670008401614002F0E03402F0103502F00F32D4
:1016800042EA540242EAC50282EA920404F0332498
:1016900082EA8402624003F0E03403F0103503F084
:1016A0000F3343EA540343EAC50383EA930404F087
:1016B000332483EA8403634081EA324787EA13458F
:1016C00081EA354690EA060484EA034B82EA1B422B
:1016D00080EA044484EA054483EA144A85EA14440F
:1016E0008BEA044B84EA374481EA0B4181EA1641D4
:1016F00004EA0A00454082EA04082BEA0800414057
:101700008AEA0B0602EA060084EA34438AEA3A4689
:1017100003EA060778404540414088EA38478BEAAB
:101720003B4007EA000985EA090583EA07094640C4
:1017300006EA0906714085EA010005EA3546464099
:1017400006EA314181EA304181EA364606EA30460E
:1017500086EA3546344008EA010886EA01052A404F
:1017600086EA364003405A4081EA31431F407C40BC
:1017700080EA030709EA070988EA0908544088EA69
:10178000020806EA0A0601EA0B018AEA0B02154082
:101790008AEA3A42104045408BEA3B4003405E40B3
:1017A0004240174079404D404E40E443F64386EABC
:1017B00018435D4085EA054083EA134386EA034106
:1017C00083EA384284EA114383EA04435FEA3343FD
:1017D000BEF1010E3FF6F2AE1ED4BCE8F000604050
:1017E000694072407B4020BCFFF784FE286069603E
:1017F000AA60EB60BDE8F08F2DE9E0414FF2F00206
:1018000080EA1031114080EA0130484041088208E6
:10181000C3084FF0000E4FE700F0113001F0113116
:1018200002F0113203F0113340EA410040EA820035
:1018300040EAC3004FF2F00280EA1031114080EA22
:1018400001304840BDE8E0812DE9F04F02F11C0570
:101850000646074600EB850851F8040B043A46F8A3
:10186000040BF9D14FF0010CFFF7C6FF5FEA3020FF
:1018700080EA0C001ECF41404A4053405C401EC6E7
:101880002000464517D04FEA4C0C1CF4807F18BF4F
:10189000ACF1E50C2C2DE7D03C2D06D1FFF7ACFFC9
:1018A00006CF41404A4006C6100006CF41404A409C
:1018B00006C61000D8E736E90F00FFF7C5FD043D66
:1018C00086E80F00F7D1BDE8F08F00BF30B44FF0CD
:1018D000000310F8014B11F8015B013A84EA05049A
:1018E00043EA0403F5D1A3F101034FEAD37030BCFE
:1018F000704700BF4FF0000310F8012B013943EA95
:101900000203F9D1A3F101034FEAD370704700BF7E
:1019100030B411F8014B12F8015B6C4000F8014B38
:10192000013BF6D130BC7047014B1B685B68184720
:1019300000000020014B1B689B6818470000002036
:10194000014B1B681B69184700000020014B1B68F6
:101950005B69184700000020014B1B689B69184712
:1019600000000020014B1B68DB69184700000020C5
:10197000014B1B681B6A184700000020014B1B68C5
:101980009B6A184700000020014B1B681B6B18471F
:1019900000000020014B1B68DB6B18470000002093
:1019A00010B4034C2468E468A44610BC604700BF30
:1019B00000000020014B1878704700BF900E0020F7
:1019C000042810B511D883B104280CBF1024282492
:1019D000A1420AD2064C54F8200018B141568A425E
:1019E000A8BF0A461A70002010BD6FF01500FBE773
:1019F0008009002030B50346114890F91C209A4216
:101A000019DD90F924209A4217DA9A1A846AA05CA8
:101A10000C4A15569D420DD00E32002918BF0130D8
:101A20009442C0B206D129B1013BDBB2012B01D8EF
:101A30000130C0B230BD0D20FCE70020FAE700BF46
:101A4000800900208852020008B5054B93F91C302C
:101A5000984203DAFFF7CEFF024B1B56184608BD2B
:101A6000800900208852020010B51C4C94F82C30DC
:101A700073B9012384F82C3002F0ECFF48B1184B05
:101A8000A362D823236284F824300823A361237738
:101A900010BD02F0F5FF0028F1D102F0FBFF002895
:101AA000EDD102F0B9FF38B10E4BA362D823236207
:101AB00084F824300423E9E702F0B8FF0028F3D1CA
:101AC00002F0BEFF0028EFD102F0CEFF0028EBD1DC
:101AD0004FF4DF71742002F03FFE00BF8009002048
:101AE000C3520200965202004FF08042012353601D
:101AF0000023C2F80031014A13707047AD0900207D
:101B0000014B01221A707047AD0900204FF080434D
:101B1000D3F8003123B9034B187800F00100704767
:101B20000120FAE7AD09002070B50A4D01260446F0
:101B30002E70FFF7EBFF30B94FF080436E706C6092
:101B4000C3F8046370BD002CFCD0A04700236B6079
:101B5000F8E700BFB0090020024B00221A705A704B
:101B60005A607047B009002010B5034C208100F086
:101B70007DFD608110BD00BFB0090020014B588978
:101B8000704700BFB009002010B5EFF3108472B6A3
:101B9000064A937B0133DBB29373937B012B01D114
:101BA00003F06BFB04B962B610BD00BFB0090020A2
:101BB00038B5FFF7E9FFFFF7A9FF094C4FF0804563
:101BC00040B103F084FB01232B610423E373002362
:101BD000237438BD0323E3730123C5F80433F6E708
:101BE000B009002010B5EFF3108472B6094A937B58
:101BF00023B940F2E3116D2002F0AEFD937B013B6F
:101C0000DBB29373937B0BB9FFF76EFF04B962B637
:101C100010BD00BFB0090020024BD87B003818BFB0
:101C200001207047B009002073B51B4D6B7C63B970
:101C3000E86900F0030003F03AFB30B1EFF31083E2
:101C400072B6EA7B1AB103B962B602B070BD012266
:101C5000EA7303B962B64FF080430822C3F8082341
:101C60004FF42073ADF80630BDF80640A4B2631EF1
:101C70009BB2ADF80630002CF6D14FF080460748F5
:101C8000C6F80C4103F09BFC85F82140FFF790FF5C
:101C90000823C6F80433D8E7B0090020D009002093
:101CA0002DE9F041384C94F82230002B69D04FF0E8
:101CB0008043D3F80071D3F8046157B10122C3F80F
:101CC000082363782BB16368002565700BB19847D2
:101CD00065604EB14FF080430022C3F80421022218
:101CE000C3F80823FFF7A0FF4FF080462748D6F837
:101CF0000C8194F82150EDB203F065FC20B14FF453
:101D000021716D2002F028FD47B1E37B032B05D143
:101D10000423E37303F0DBFA01233361B8F1000F0E
:101D200016D04FF080430022C3F80C21E37B042B34
:101D300002D040F2A221E4E702F0B6FEC0B14FF0BB
:101D400080430022C3F8342C0223E373FFF74AFFD9
:101D50004DB1002384F82130E37B022B01D1FFF742
:101D600027FFFFF73FFFBDE8F041084803F03ABC0A
:101D700002F07AFE0028E2D102F08CFE0028DED1CB
:101D8000E2E7BDE8F08100BFB0090020D0090020E3
:101D900010B5054CE06900F0030003F088FA002854
:101DA000F8D0002010BD00BFB0090020F8B50546EE
:101DB00050B10278042A07D8437842B9013B1F2B5F
:101DC00002D88378212B07D96FF0150097E0002BFC
:101DD000FAD18378002BF7D1854B0127C3F88070A7
:101DE000BFF34F8FBFF36F8F4FF08046C3F8807102
:101DF000804C4FF0FF33C6F808330023C6F800319B
:101E0000C6F80431C6F80C31A373AB88A38103F084
:101E100039FA08B12770A773D6F80C24D6F80C3419
:101E2000D20303D5DF0701D5FFF76AFE4FF4AF6099
:101E3000FFF79AFE2B78A97863740022E261A174FF
:101E40002274042B2CD8DFE803F00503192729009E
:101E50000123E36103F01DFA002851D003F020FABA
:101E6000E36903F0030398424AD1AB79EBB9FFF77A
:101E70008FFF00281EDA40F21F4113E0FFF784FEB7
:101E80004FF08043D3F80C14D3F80C24CE03F9D5CB
:101E9000D007F7D50223DCE7574BDAE7574BD8E7F3
:101EA00040F211416D2002F057FC4FF080430222B6
:101EB000C3F80423A37C6BB12B785BB9FFF726FE34
:101EC000054602F0FFFC6FF00043002D00F08D800E
:101ED000C4E905034FF08043D3F80C24D3F80C3445
:101EE000D20303D5DB0701D5FFF70AFE404A0123E1
:101EF0000020E07384F82230C2F880311360F8BD0E
:101F00004FF080430122DA600022C3F80421E26925
:101F1000C3F8182502F080FD10B34FF080534FF046
:101F20008042D3F84432C3F34233C2F83C3502F066
:101F300073FD10B34FF080430122C3F84C254FF0DE
:101F4000804301229A600222C3F80423AA79002A5E
:101F5000B0D1D3F8042391071CD44FF47171A1E7D9
:101F600002F064FD0028D8D102F06AFD0028D4D127
:101F700002F07AFD0028D0D1D9E702F057FD002801
:101F8000D8D102F05DFD0028D4D102F06DFD00280B
:101F9000D0D1D4E71A4A1669116941F010011161D4
:101FA000D3F8043106F010060BB903F028FB4FF00C
:101FB0008047D7F8043133B1FFF7EAFE002805DA8D
:101FC00040F2DE316EE703F018FBF2E726B90C4A67
:101FD000136923F0100313614FF080430222C3F80A
:101FE00008230022C3F8042164E7C4E9053071E73F
:101FF00000E100E0B0090020010002000100030040
:1020000000ED00E010B50D4C04F1200003F0DBFA08
:1020100048B9E37B022B01D1FFF7CAFDBDE81040B0
:10202000074803F0DFBA074A012384F82130BDE8EE
:102030001040C2F80031FFF7A7BD00BFB009002073
:10204000D009002000E100E0094B1A7810B50446E1
:102050001AB13C216F2002F07FFB5A7832B901227D
:102060005A70FFF791FD2046FFF75EFD002010BD7E
:10207000D409002038B5084C25781DB152216F20B5
:1020800002F06AFB637823B1FFF766FD6570FFF726
:10209000A9FD002038BD00BFD4090020014B5B68BA
:1020A000184700BFD4090020014B9B68184700BFA8
:1020B000D4090020014BDB68184700BFD409002079
:1020C000034B1A780AB9FFF759BD988D704700BFC6
:1020D000D4090020024B1B780BB9FFF7A5BD704750
:1020E000D4090020014B5B69184700BFD4090020C8
:1020F00010B5144C2378A3B1236A9847002806DB57
:1021000094F82A3023B1012384F82E30002010BD2A
:10211000FFF7E8FF0028F6DA4FF48B716F2002F02A
:102120001BFB094B6361094BA361094BE361094B3D
:102130006360094BA360094BE360FFF737FE00289B
:10214000E1D0E4E7D4090020911D00000520000043
:10215000191C0000891B0000E51B0000F55200005F
:10216000064B10B51C7824B140F275116F2002F0B7
:10217000F3FAFFF7F9FC204610BD00BFD409002098
:10218000034610B3007888B91A79012A1ED85A7903
:10219000012A1BD89A680E49643A8A4216D8D86830
:1021A0000C4B98422CBF00200120704701280CD115
:1021B0001A79012A09D85A79012A06D8DA68044915
:1021C000643A8A4201D89868EAE70020704700BF65
:1021D0003C8601000040420F10B5054C236813B146
:1021E000984700232360BDE8104001F079BB00BF91
:1021F000040A002038B5044620B940F2A9116A202B
:1022000002F0AAFA90F82850072900F2EC80DFE8E3
:1022100001F004464676808AA39190F82630033B6D
:10222000012B02D94FF4DA71E9E7052390F8241065
:1022300080F82630002380F8293061BB714B0122E1
:10224000C3F84015C3F84011C3F84415C3F844114E
:10225000C3F84815C3F84811C3F84C15C3F84C111E
:10226000DA6003F063F82378012B0FD101F0E2FC70
:10227000C4E90601236A0021284698470146204602
:1022800003F06BF8022840F0B18038BDD4E9042394
:10229000C4E90623EEE7BDE83840FFF79DBF90F89C
:1022A0002630DA1E012A02D940F2D511A7E790F8AC
:1022B00024202AB121462846BDE8384003F01CB846
:1022C000042B0CBF02230123012980F82630036A66
:1022D0000AD10521284698470028D6D00378002B3C
:1022E000D3D04FF4F5718AE7062128469847002895
:1022F000CBD00378002BC8D040F2EF117FE790F8E5
:102300002630052B02D04FF4FB7178E7036A0221D7
:10231000B2E790F82630052B02D04FF4FE716EE73D
:10232000036A0121A8E790F82630052BB3D040F2CC
:10233000022164E790F82630052B02D040F20721F5
:102340005DE7036A0A21284698470146204603F0C4
:1023500004F840F20A2152E790F82630052B07D006
:1023600090F825200AB1032B02D040F20E2146E757
:1023700094F82420002A9DD194F8293093B10223A7
:1023800084F8263084F82920236A082128469847B3
:1023900000283FF47AAF0378002B3FF476AF40F289
:1023A0001A212CE794F8252062B194F8270084F8CC
:1023B0002530214601F044FC00287FF466AF40F24E
:1023C0001F211CE7022384F826300721236A2846B0
:1023D000984700283FF459AF0378002B3FF455AFDE
:1023E00040F226210BE740F22B2108E720B101281B
:1023F00005D1236A04213FE7236A03213CE74FF418
:102400000F71FCE6008000402DE9F843884607463E
:1024100080B300F037F84FF0000905465FFA89F6FF
:10242000AE420AD2304600F033F890F8264009F167
:102430000109002CF2D1FF2E03D16FF00B00BDE893
:10244000F883304600F024F80546848480F826405E
:1024500080F8286001460A4801F09EFB202885F894
:1024600027000AD001232F6285F82630204688F8FD
:102470000060E4E76FF01500E1E76FF02200DEE7AF
:10248000F5210000014B1879704700BF080A0020B1
:10249000054B1A79824283BF1B6800EB400003EBB7
:1024A00000100020704700BF080A002010B510F08F
:1024B00003040A460BD107490A71086030B102EBE8
:1024C00042021201214602F03FFB204610BD6FF090
:1024D0000D00FBE7080A002043F60952C0F3080389
:1024E00002FB03F3400A03F5807302FB00F000EBEC
:1024F0005320704743F6095CC0F3080210B50CFB8B
:1025000002F2C0F34E24030E43EA01230CFB04F055
:10251000090E02F580724FEA411C00EB52205A016D
:10252000B2EB030E4CEAD36C6CEB01044FEA841C53
:102530004FEA8E12B2EB0E024CEA9E6C6CEB040C6E
:102540004FEACC0C4CEA527CD200D31841EB0C0180
:10255000DA03C903801841EA534141F1000110BD7B
:10256000430B48F2376C0CFB03F34FEA134C00B5F6
:10257000104B43F6095E0EFB1C0000FB03F35B0DE2
:102580000EFB03FE03EB4C230EF5745C0CF1080C00
:10259000B0EB5C2F08D80EF5807EA0EB5E20C0B2B9
:1025A0000B6010705DF804FB013300200B601070AD
:1025B0005DF804FB6F0C0100F8B5274DA94246D821
:1025C000264E274F450F45EAC105A6FB0514C0F36B
:1025D0004F31A40B01EB054107FB1411A6FB015180
:1025E000890B41EA04411F4C04FB110448F2376C8B
:1025F000600B0CFB00F04FEA104C43F6095E1A48E2
:102600000EFB1C4505FB00F0400D0EFB00FE00EB31
:102610004C200EF5745C0CF1080CB5EB5C2F12D855
:102620000EF5807EA5EB5E2E5FFA8EFE069D85F888
:1026300000E00D0628184FEA112141F10001186051
:1026400059601460F8BD01304FF0000EEEE796219E
:102650009B2002F081F800BFFF7F841E83DE1B43B6
:10266000000024F40080841E6F0C0100420B48F22D
:10267000376303FB02F2120C43F6095C074B0CFBB9
:10268000120101FB0333013B5B0D0CFB03FC500209
:10269000B1EB5C2F88BF0130184470476F0C01000C
:1026A00010B5094A92F80033202B03D13E210220B5
:1026B00002F052F818214B43D018BDE81040D3580F
:1026C00040680321184700BF100A00200C4B0D4939
:1026D0001B78012B14BF4FF4E0224FF4C022C1F845
:1026E000482318BF0023C1F80823074A99000A4469
:1026F0000021012B42F8041B00D170470123F8E7A9
:10270000500D002000B0004040B1004070B5EFF324
:10271000108472B6094A0A4B0025D2F80415D2F883
:1027200004612EB1596801315960C2F80451F4E7CF
:102730005B6804B962B6C0E9001370BD00B0004028
:10274000500D0020094BD3F80435C01A20F07F4308
:1027500023F001033BB120F07F40B0F5000F8CBFA8
:102760000220002070470120704700BF00B00040E9
:1027700008B5124BD3F8042522F00302C3F8042550
:10278000D3F8082542F00302C3F80825102292FA74
:10279000A2F2B2FA82F2092A04DD094840F2A73116
:1027A00001F0D0FFC3F810250122DA60054B4FF489
:1027B0008072C3F880211A6008BD00BF008000400D
:1027C000CE65020000E100E0114B4FF40062C3F857
:1027D0008020BFF34F8FBFF36F8FC3F880210D4B65
:1027E00001225A609A60D3F80425002AFBD10A49D5
:1027F000C3F808134FF4E021C3F84813C3F840218D
:10280000C3F84421C3F84821C3F80421704700BF2E
:1028100000E100E000B00040020007000D4B4FF463
:102820008072C3F88020BFF34F8FBFF36F8FC3F860
:102830008021094B01214FF0FF325960C3F8082372
:102840000022C3F84025C3F840211961034B1A72D6
:10285000704700BF00E100E000800040500D002004
:102860002448FF2310B54FF0FF32002443724FF08D
:10287000FF33C0E9042304704460FFF7CFFFFFF784
:10288000A3FF1D4A1D4BC2F800424FF400611960BE
:1028900080691B4930B901230B60194B0222C3F830
:1028A000042310BD174B184CC3F8A845C3F8AC055A
:1028B000C3F85C194FF40021C3F804150521C2F8D0
:1028C000401501211160D2F840110029FBD04FF4CE
:1028D0000021C3F8081501215160D1600021C2F820
:1028E0004011C2F84015C3F8A815C3F8AC15C3F8D9
:1028F000AC15D2E7500D00200080004000E100E060
:1029000000B0004000F0014040810040014BD3E99D
:1029100004017047500D0020014BD3F804057047A7
:1029200000B0004013B56846FFF7F0FEDDE9000493
:10293000FFF7D2FD024B0021E4FB030102B010BD02
:102940000080841E70B50F4B0F4D104A104C0026AE
:10295000C5F80061C3F8A8254FF40022C3F8AC45C0
:10296000C3F8042502F01DFED5F800312BB1012378
:10297000C5F800616360E360F4E7013041F10001F4
:1029800070BD00BF00F0014000B0004000B1004049
:1029900000800040B1F1FF3F08BFB0F1FF3F2DE9DB
:1029A000F041334C05460E461ED1324BD3F8003170
:1029B000ABB1314B314AC3F80825FFF787FE00233E
:1029C0006372FFF72BFFFFF7D3FEFFF7BBFF022376
:1029D000C4E904012370FF236370BDE8F08102F0B5
:1029E000E0FDC51C41F10006D4E90473B34208BF01
:1029F000AF42F2D0204B214AC3F80825FFF766FE0C
:102A00001C4A4FF4803125F07F480023C2F8081398
:102A10004046C2F84813C2F84031FFF793FE20B198
:102A200040F209316C2001F097FEC2F84085C2F8EF
:102A300044132378012B06D127F07F473846FFF750
:102A400081FE0128FAD000236372FFF7E7FEFFF74B
:102A50008FFE094A01234FF000412370C2F804158C
:102A600004226270034AC4E90456C2F84833B4E74A
:102A7000500D002000B0004000F001400000088030
:102A800037B540B1041FE4B2022C13D94FF46B7177
:102A90006C2001F061FE214B4FF48032C3F8082313
:102AA000C3F84005C3F84001D3F840310093009BC0
:102AB00003B030BD1A4D2B7893B16A7882420FD1A2
:102AC000184A1949C2F80815012B01D1FFF7A6FED3
:102AD00000232B704FF0FF324FF0FF33C5E9042382
:102AE000124A4FF48033A340C2F80833C2F8483387
:102AF00004F5A87352F82300FFF724FE012818BF3D
:102B00000B4B22B24FEA84041CBF00211951084B21
:102B100053F822300193019BCAE700BF00800040B8
:102B2000500D002000F001400000088000B000407F
:102B300040B1004070B52C4B30B1041FE4B2022C00
:102B40002AD940F267310BE0D3E90401B1F1FF3F2C
:102B500008BFB0F1FF3F06D11B7A23B940F23F31E5
:102B60006C2001F0F9FD12B940F24331F8E71F4B38
:102B70004FF480310120C3F80413C3F84025586492
:102B8000D3F8441500248A42C3F8444503D82046AC
:102B9000FFF776FF204670BD197829B15B78834234
:102BA00002D140F26331DBE7114B124E22F07F413C
:102BB000A20013444FF48035A5400022C6F8085304
:102BC0000846C6F848531A60FFF7BCFD48B904F53B
:102BD000A874012046F82410C6F80453C6F84453DC
:102BE000D9E71046D7E700BF500D00200080004015
:102BF00040B1004000B0004008B5FFF767FD054B4D
:102C00004FF0FF32C3F808230022C3F84025C3F871
:102C1000402108BD0080004008B50122084B10B1DA
:102C2000C3F8442308BDC3F84823FFF7F7FD054B5D
:102C30004FF0FF3118704FF0FF30C3E90401F1E7A6
:102C400000B00040500D0020F8B5164D164E00247F
:102C50004FF48037D5F8043307FA04F21A4212D041
:102C600056F824307BB1002346F8243004F5A873CD
:102C700055F82300FFF766FD28B1201DC5F808238D
:102C8000C0B201F03FFA0134032CE3D1054BD3F875
:102C9000042132B10022C3F80421044A53680133ED
:102CA0005360F8BD00B0004040B10040500D00201E
:102CB00010B51C4C637AFF2B2DD0237883B10122F1
:102CC000022B227221D1184B4FF40022C3F80825A1
:102CD000002323704FF0FF324FF0FF33C4E9042389
:102CE000124BD3F80423D2031BD5D3F84021C2B131
:102CF0004FF480320020C3F80823C3F84001FF23BB
:102D00006372BDE8104001F0FDB9022360782370C2
:102D1000FFF7B6FEE4E7054BD3F804330BB1072009
:102D2000EFE710BD500D002000F001400080004092
:102D30002DE9F04F95B01C460492CDE90201FFF752
:102D4000E5FD182301910646C049082004EB440222
:102D500013FB0404631801EBC202083265581F7BA1
:102D6000D3F8048093F80D9005970FCA0EAC25F0A8
:102D70007F4A84E80F005046FFF7AEFBB44B7C1C43
:102D80009842044400F298819C4200F39380002C06
:102D900055DBFFF78FF9B9F1010F834608D0AD4F2E
:102DA000D7E90223B3F1FF3F08BFB2F1FF3F4BD099
:102DB000FFF786F9019B0690B3F1FF3F08BFB6F11C
:102DC000FF3F03D0B54278EB030378D2029B032286
:102DD000EB1A934269DBBBF1000F00F0F88000238F
:102DE0000793029BB5EB030B039B68EB0307FFF70D
:102DF00067F90930C217834577EB020380F0EB8057
:102E0000049B012B00F0F180079B002B5AD1019B02
:102E1000B3F1FF3F08BFB6F1FF3F53D0721B63EB26
:102E20000803042A73F1000180F23881012A73F14A
:102E300000033ADADDF81CB026F07F4A52E004F1D4
:102E4000F45404F59024A4E70028B1D1FFF738F931
:102E5000019B0690B3F1FF3F08BFB6F1FF3F00F0C2
:102E6000B380B54278EB0303C0F0AE803B7C002B0F
:102E7000069B14BF00221A463346EB1A9A4214DC12
:102E800001230793D7E90232B2F1FF3F08BFB3F144
:102E9000FF3FA6D00699EB1A68EB02028B4272F153
:102EA00000039ED2B9F1010F9BD00024204615B03B
:102EB000BDE8F08F04F1614404F5F70469E7334697
:102EC000002285E728464146FFF764FD4FF0000BDE
:102ED000B8F1FF3F08BFB5F1FF3F00F0F2802E468A
:102EE000CDF804805046FFF7F7FA5B4B221A9A425E
:102EF0000ED3001B9842C0F08C80554B9A4200F2D2
:102F0000C280984240F2E780C0F1614202F5F702C8
:102F1000D3170020FFF70EFE04460028C5D04D4F02
:102F2000B9F1010FD7E9022375D0BBF1000F40F0D2
:102F30009780B3F1FF3F08BFB2F1FF3F00F0B580CB
:102F40000120FFF769FE3B7C002B40F0A1806A1E48
:102F500068F100030620FFF7EDFD002851D0B969A4
:102F60004FF0804200230B60C2F8083500238DF833
:102F7000483008934FF0FF324FF0FF33CDE90A237A
:102F8000DDF814A08DF84590CDF83C808DF844A074
:102F90000E9508AF0FCFDFF8C4904E460FC60FCF87
:102FA0000FC697E80F0086E80F0028464146FFF756
:102FB000A1FA534601331B1841F100012046C9E92B
:102FC000043115B0BDE8F08F029BC21C55E7214FBC
:102FD000CDF81CB056E7B9F1010B2846414618BFA1
:102FE0004FF0010BFFF7D6FC72E7019BB3F1FF3FF7
:102FF00008BFB6F1FF3F73D026F07F4A4FF0000BB9
:1030000070E7BA694FF080410123C1F808351360B9
:10301000ACE742427CE7B3F1FF3F08BFB2F1FF3FAC
:1030200024D1BBF1000F8ED0069BF21A019B4FF00A
:10303000050063F10003FFF77DFD002846D03B7CCF
:10304000002B84D101233B7481E700BF100A0020CC
:10305000FF7F841E700D00200040420F180D0020DD
:10306000B3F1FF3F08BFB2F1FF3FDDD0FFF71CF81F
:103070004FF0FF324FF0FF33C7E90223BBF1000FDF
:103080003FF461AFD0E702F1F45202F590223FE73E
:103090000520FFF7F5FC00233B7458E7284641461E
:1030A000DDF81CB0FFF776FC12E7FEF7F7FF02F041
:1030B00078FAC7E9020143E740F22E41702001F09F
:1030C0004BFB40F24371702001F046FB40F231218E
:1030D000702001F041FB40F60B01702001F03CFB39
:1030E00040F2A761702001F037FB00BF2DE9F04FDF
:1030F0008D4F7C7C04EB44033B4483B05D78202DF2
:1031000048D08A4BE6B26400002B00F08980884BDF
:10311000DFF82092002B5FD005EB461207EB420A46
:103120004FEA46189AF81C30013BDBB2052B34D825
:10313000814A12F803B0BBF1080F2ED0AFF3008024
:10314000EFF3108372B634443C449AF81D20627049
:10315000A278AA4204BF2022A27013B9AFF3008064
:1031600062B6A84405EB450509EBC50207EB480824
:10317000506859F835300122594688F81C20984784
:103180007C7C04EB44033B44E6B25D78202D4FEA9F
:103190004404C1D103B0BDE8F08F40F272617020E9
:1031A00001F0DAFA62B6A84405EB450509EBC50261
:1031B00007EB4808506859F835300122594688F81D
:1031C0001C2098477C7C04EB44033B44E6B25D78CA
:1031D000202D4FEA4404DDD005EB461207EB420AEE
:1031E0004FEA46189AF81C30013BDBB2052BD4D8C5
:1031F000514A12F803B0BBF1080FCED0AFF30080F4
:10320000EFF3108372B634443C449AF81D20627088
:10321000A278954204BF2022A270002BC3D1C1E73F
:10322000434BDFF814B1DFF80CA14FF02009002B5D
:103230004FD005EB461207EB42024FEA4618137FC8
:10324000013BDBB2052BA8D81BF803100829A4D03A
:10325000EFF3108372B634443C44527F6270A2781C
:10326000954208BF84F80290002B52D0A84407EB87
:10327000480805EB45050AEBC5025AF83530506899
:10328000012288F81C2098477C7C04EB44033B44D3
:10329000E6B25D78202D4FEA4404CAD17AE762B6DF
:1032A000A84405EB45050AEBC50207EB4808506842
:1032B0005AF83530012288F81C2098477C7C04EBB2
:1032C00044033B44E6B25D78202D4FEA44043FF4CA
:1032D00061AF05EB461207EB42024FEA4618137F37
:1032E000013BDBB2052B3FF658AF1BF80310082952
:1032F0003FF453AFEFF3108372B634443C44527F33
:103300006270A278954208BF84F80290002BC7D162
:10331000C5E70191AFF3008062B6A844019905EBBF
:10332000450507EB4808A6E7700D002000000000E7
:1033300000000000100A0020F45202002DE9F04FB6
:1033400085B0DFF80C81019301EB41034FF0200CB5
:1033500018F8034003916445924682F800C073D088
:103360004B01DFF8F09006469B4610E0727B012A85
:1033700002D0427D012A57D00BEB040308EB430334
:103380008AF800405B7F202BA4465DD01C4604EBEE
:10339000440009EBC000D0E90323876835687168F1
:1033A00013EB070E42F10002754571EB02024FEA82
:1033B0004403DBD21D46019B83F800C0039B4FEA08
:1033C000431B281909EBC0003768B368D0F808A080
:1033D0007268C168DB1942F100029A4571EB020381
:1033E00010D3437D012B02D0737B012B03D001202E
:1033F00005B0BDE8F08FFEF763FEAAEB07070130CA
:103400008742F4DA019A254409EBC5051470A97DB9
:10341000B27B0BEB0403914208EB430310D95C7FB2
:10342000202CE4D06500CCE70293FEF749FEED1BAB
:1034300001308542A0DA029B9AF800C01D46BAE727
:10344000002005B0BDE8F08F019B1C70CFE700BFE6
:10345000700D0020100A00202DE9F04F83B00C46BB
:1034600015461E469DF83070FFF700F92268636824
:10347000451946F10006954276EB030342D3DFF887
:103480008C8005E05D4576EB09033BD3C4E900B9C8
:103490000DF107030DF1060239462046FFF74EFFF6
:1034A00088BB9DF8073003EB430308EBC303D3E964
:1034B00002A01A691AF1030B40F1000012EB0B0B8A
:1034C000627B40F10009012ADCD05B7D012BD9D160
:1034D000FEF7F6FDABEB0A0301308342D2DA9DF82A
:1034E000073003EB430308EBC303D3E902B9FEF74C
:1034F000E7FD013010EB0B0B49EBE0795D4576EB16
:103500000903C3D2002003B0BDE8F08F100A0020E9
:103510002DE9F04715461C4612782F7A95F809C018
:1035200088B00023E360C4E90033A7739DF84080AE
:1035300084F80DC00646A360E2730F46002A3AD114
:10354000FEF7D8FFD5E9042C3C4BC31841F1000E1F
:103550009A427CEB0E030AD3013E47F1FF37C4E9E0
:1035600000674FF47A73A36008B0BDE8F087263097
:1035700041F1000182427CEB0103EDD3501E04F1C6
:103580000C036CF10001009304AA06ABFFF714F8DA
:10359000049B686802330DF10F0205A91844FEF779
:1035A000DFFFDDE9053207999B1A23F07F43C4E969
:1035B0000021A360D8E7224804F10C0206A9FEF717
:1035C000CFFF204B1B78202B24D01F498B69D1E9DA
:1035D0000721083342F1000A13EB01094AF1000AFE
:1035E0006B68207B1844023005AA04F10801C4E985
:1035F000009AFEF7B5FF2869CDF8008032463B46B9
:103600002146FFF729FF0028AED1C4E9006708B0C2
:10361000BDE8F087637B16F1080947F1000A012B2A
:10362000DED0FEF747FD0028DAD1FEF749FD10EBAA
:10363000090399464AF1000AD2E700BF0040420F51
:10364000FF7F841E100D0020180D00202DE9F0478B
:1036500000EB4003344DDFF8D480EC5C06464700B5
:10366000FFF75AF94FF0200C4FEA461E04EB4401D5
:1036700008EBC1010EEB0403D1F808A00A69AAEB1C
:10368000000929F07F49B9F5000F05EB43030DD878
:1036900012EB0A02121A22F07F42B2F5000F05D88F
:1036A000BCF1200F0AD12046BDE8F0875B7F202BBC
:1036B000A4461C46DAD1BCF1200FF4D00CEB461323
:1036C000BA1905EB430315F802805B7FAB54710117
:1036D00044464FF0040E0B1905EB43032246944574
:1036E000204683F81CE05C7FF5D1BB192B440A44CB
:1036F00093F802E0BEF1200F5FFA8EFC18BF8C44F5
:103700003E4418BF05EB4C0C05EB4202354408BFA4
:1037100083F801804FF0200318BF8CF81D80A8703B
:1037200053772046BDE8F087700D0020100A002076
:103730002DE9F04101EB41034A4DEE5C202E82B0B1
:103740000C4680464FEA410740D1474B0BB1AFF3DF
:10375000008001F026FFAB7C0191202B0AD0434B67
:10376000D3E906E210F1020C41F10003E64572EBE9
:10377000030330D3202E0AD042463346FFF7D8FA4F
:1037800000283DD00220AE7402B0BDE8F081D5E93A
:103790000223B3F1FF3F08BFB2F1FF3F1FD12B7CE3
:1037A00043BB0420FFF76CF9FFF726FA0020FFF770
:1037B00033FAA9694FF080422020A8740023012029
:1037C0000B60C2F8083502B0BDE8F0810846FFF78B
:1037D0003DFF8642B9D0002002B0BDE8F081FEF77F
:1037E00063FC4FF0FF334FF0FF32C5E902232B7C1F
:1037F000002BD6D00520FFF743F900232B74D0E728
:103800003A1906EB441305EB430315F802C05B7F3E
:10381000AB5461016246042013468A1805EB42024C
:103820009E421077527FF7D13A192A443C44967849
:10383000F0B2202E18BF4018194418BF05EB400005
:1038400005EB4101254418BF80F81DC0AB704FF057
:1038500000004FF0200308BF82F801C04B7702B090
:10386000BDE8F081700D002000000000180D002060
:1038700038B5164A164D4FF0FF304FF0FF31002398
:10388000C2E90201C5E90201202142F22000A9702B
:10389000136082F82830A9741C4628806B742B743E
:1038A00005F11C0202F814300134202CFAD1094829
:1038B00001F046F8084B094A1C70107001F000F93D
:1038C000A861FEF7CDFF0123EB7438BD180D002071
:1038D000700D0020ED300000100D0020480D00207C
:1038E0002DE9F04F83B001F05CFEA44F06460C4674
:1038F000FFF782F94FF0FF334FF0FF32C7E90223A1
:1039000097F82830BBB9BB693A6AF9699C48023319
:1039100041F100019B1802F5DF62A0FB02024FEAB1
:10392000922241F100019B1841F100019E4274EB8B
:10393000010380F00E814FF0FF304FF0FF31FFF7B1
:1039400029F8904A92F800B0BBF1200F00F01181E5
:103950008D4D20231370AB746B7C00223A6003EB17
:1039600043025FFA83F915F802805B00B8F1200F7B
:1039700000930BD0DFF814A208EB48030AEBC30353
:103980004FEA4802D97D012900F0B780009BDFF89B
:1039900000A203EB09062E444FEA49183478202C84
:1039A00004D04846FFF752FE8442F7D1BAF1000F27
:1039B00001D0AFF3008001F0F4FDAB7C202B09D0E7
:1039C000D7E9062310F1020E41F1000C724573EBAA
:1039D0000C03E3D3202C19D023460122FFF7A8F9CA
:1039E000002860D008EB0B0305EB4303AC741A7F8F
:1039F000022A36D0FF23AB71009B4B441D446B78E9
:103A0000202B40F08C8003B0BDE8F08FD5E9022375
:103A1000B3F1FF3F08BFB2F1FF3F07D0FEF744FB11
:103A20004FF0FF324FF0FF33C5E902232B7C002B10
:103A30005DD10420FFF724F8FFF7DEF80020FFF740
:103A4000EBF8A9694FF0804200232020A8740B6096
:103A5000C2F8083508EB0B0305EB43031A7F022A73
:103A6000C8D14A4A0BEB4B0102EBC102527D022A3C
:103A70006CD0009A4A442A4406211977917820296B
:103A8000CBB260D0434405EB430383F81DB0009BE9
:103A90004B442B44D84405EB480883F802B020235C
:103AA00088F81D30A6E708EB040305EB43033078E4
:103AB0005B7F3370024604211346424405EB420209
:103AC0009C421177527FF7D1B178B370CAB22029E6
:103AD0001CBF424405EB4202434405EB430318BFBD
:103AE00050774FF0200208BF70705A7756E70520D4
:103AF000FEF7C6FF00232B749BE75B7D012B15D1DE
:103B0000033644F1000402EB08030AEBC303D3E9D4
:103B10000202B042A24128BFC3E9026436E71D4B4E
:103B2000187803B0BDE8F04F00F026BF0192FEF711
:103B3000C1FA019A0028E3D1FEF7C2FA8619019A68
:103B400044F10004DFE782F801B0A0E701221A7710
:103B500050E70C4B0D4A1B78182101FB03F3D018DA
:103B600007214068D358984740F2B621702000F0F2
:103B7000F3FD40F2C121702000F0EEFD180D002091
:103B80009300DC92100D0020700D0020100A002020
:103B900000000000480D002038B505460C46FEF731
:103BA000A1FA002822DB14494B7C01F11C0C5FFABE
:103BB00083FE0CEB831C002302E00133202B13D087
:103BC0001CF81320D8B2002AF7D10C4A03EB4E1E82
:103BD00003EB430301EB4E0142F8335002EBC30306
:103BE00001220A775C6038BD184638BD40F21731B3
:103BF000702000F0B1FD00BF700D0020100A002001
:103C00001F2808D80A494B7C00EB431301EB430300
:103C10001A7F012A01D0002070474B7C00EB431330
:103C200001EB43034FF0000C104683F81CC07047B3
:103C3000700D0020014BD3E904017047180D0020DE
:103C40002DE9F04FAC4A53688FB0C3F308038346A5
:103C50000491002B40F0628108230393049B1B789E
:103C6000012B00F23D82A54E26B1002140F24D50BD
:103C7000AFF300800023A24C05934FF0010926B159
:103C8000002140F25A50AFF30080B9F1000F04D187
:103C90009C4B0BB1AFF3008062B6657CEDB24FF088
:103CA0000003A371039B002B40F09880A84626B127
:103CB000002140F26E50AFF3008001F072FC049AD4
:103CC00000950AAB8246FFF723FC26B1002140F2A3
:103CD0007650AFF300800BEB481904EB49094FEA2B
:103CE000481799F81C30013B012B75D80A992AF026
:103CF0007F4AA1EB0A0222F07F4323F00103002B4D
:103D000040F0BD8008EB4802224407EB0B0390789B
:103D100004EB43030421202819774FEA4803C1B27A
:103D200000F09681394404EB410181F81DB0434411
:103D300023445F4404EB470783F802B020237B77DA
:103D400000230593012726B1002140F27B50AFF3F9
:103D500000806D4B0BB1AFF30080EFF31088C146CC
:103D600072B6A379002B8AD1684B0BEB4B0C03EB9B
:103D7000CC0C0AAB0FCB0CF1080C8CE80F008FB108
:103D8000039B002B00F0EA80059B23B1604B1B785E
:103D9000202B00F06081637CDB4303F0010363743C
:103DA000FF23A371B8F1000F04D1564B0BB1AFF351
:103DB000008062B626B1002140F2B250AFF300801D
:103DC000002F4AD126B1002140F2BE50AFF300804F
:103DD00038460FB0BDE8F08F0027B4E74D4B05F132
:103DE000010A0AF0010A03EB851E03EB8A1CBEE8F8
:103DF0000F00ACE80F00BEE80F00ACE80F00BEE813
:103E00000F00ACE80F009EE80F002DB28CE80F0009
:103E1000D0460FFA8AF726B1002140F2EB30AFF31B
:103E2000008005EB450507EB47076319625B9B784C
:103E3000E2532744BB7056B1002140F2EF30AFF39C
:103E4000008026B1002140F26450AFF30080A379D6
:103E5000002B7FF414AF554629E7637C03EB430343
:103E60001C446378202BADD026B1002140F2B9501C
:103E7000AFF30080284B187800F07EFDA2E722F017
:103E80007F42B2F5000F3FF63DAF0C9B5B18A3EBF2
:103E90000A0323F07F43B3F5000F3FF633AF0DF174
:103EA00027030DF1260229460AA8FFF747FA0590D5
:103EB00000285AD108EB480222440423907889F85C
:103EC0001C304FEA48032028C1B2434418BFC91927
:103ED00023445F4404EB470718BF04EB410183F818
:103EE00002B04FF0200314BF81F81DB082F801B07A
:103EF0007B77012727E700BF00ED00E0000000000E
:103F0000700D00200000000000000000100A0020DA
:103F1000100D00208C0D0020480D0020103B59B2E0
:103F20000029C0F28D8001F1604101F5614191F8F5
:103F300000335B090393002B7FF490AE704B1B782A
:103F4000202B00F0D280049B1B780393002B3FF4BE
:103F50008AAE40F24651702000F0FEFBFF23A371B1
:103F6000B8F1000F7FF426AF1FE79DF826C09DF83B
:103F700027E0F44518D1BCF1200F00F09E8007EB3C
:103F80000C0304EB43035B7F89F81D30BC4404EB56
:103F90004C0C00228CF81DB05F4404EB4703059FD6
:103FA000059203221A77CEE6BEF1200F00F0A28020
:103FB00007EB0E0304EB4303BCF1200F597F00F025
:103FC000878007EB0C0204EB42024FEA4803507F64
:103FD000069051774FF0050A3A1804EB4202014669
:103FE0008E45814682F81CA0507FF5D103EB080274
:103FF0002244079192F802A0BAF1200F5FFA8AFEDC
:1040000063D0BE4404EB4E0E069A8EF81D2003EBDF
:1040100008022244079982F80290394407EB0B0208
:104020004FF0200E04EB410104EB4202F44581F80D
:104030001DE05077AAD14344059A04F803B0ABE7DA
:1040400003F00F03043B13441B7E5B09039372E7E9
:1040500082F801B06BE629460220FFF769FB0028D1
:104060007FF499AE637C03EB430020440BEB4312D7
:1040700004EB420285780421DFB211775A015B001C
:10408000202DE9B23B4418BF891823445A4418BF75
:1040900004EB410104EB420283F802B04FF020032D
:1040A00018BF81F81DB0059F08BF80F801B0537795
:1040B000B8F1000F7FF47EAE77E608EB4803E35CCF
:1040C00089F81D304FEA4803B5E7069951709EE71D
:1040D00008EB48024FEA4803A05C0690A15479E738
:1040E00040F24A51702000F037FB40F243517020FB
:1040F00000F032FB40F2CF11702000F02DFB00BF2A
:10410000100D002070B586B007280DD8DFE800F04C
:10411000310C0C0C0C1D040E604B4FF080419A6961
:104120000123C1F80835136006B070BD5C4B5D4AD1
:104130001B7803EB430302EBC30052F833304068B3
:10414000042106B0BDE870401847544C237C002B76
:1041500049D0D4E90223B3F1FF3F08BFB2F1FF3FDA
:1041600000F085800120FEF757FD0023237406B080
:1041700070BD4A4CD4E90223B3F1FF3F08BFB2F14E
:10418000FF3F56D0464E0120FEF746FD3378202BE8
:1041900056D0454D95F82520012A3BD0FDF78AFFE2
:1041A0000346002835D194F89C200132D2B2312A3E
:1041B00084F89C206CD84FF47A7230786946CDE947
:1041C0000032CDE90233CDE90433FFF739FD002891
:1041D00059D095F82840012385F82830FFF780FB57
:1041E00085F82840A0E72E4B2E4A1B782E4903EB7A
:1041F00043034FF0FF344FF0FF35C1E9024502EBB6
:10420000C30152F833304868052106B0BDE870405C
:1042100018473378234A03EB430302EBC30052F8F9
:1042200033304068002184F89C1006B0BDE870402F
:104230001847FDF733FF01F0B4F9C4E90201A1E723
:10424000637C03EB4301DAB2635C202B16D003EBF3
:10425000421204EB4202507F6054FF21A171124DC3
:10426000337002211177002285F8282092E7FDF7AC
:1042700015FF01F096F9C4E9020173E740F25221FB
:10428000702000F069FA4FF4C761702000F064FA02
:1042900040F23461702000F05FFA00BF700D002022
:1042A000100D0020100A0020180D002010B51B4B27
:1042B0001B78202B86B026D0194CD4E90223B3F109
:1042C000FF3F08BFB2F1FF3F22D1D4E904310DF125
:1042D0000B02C01841F1000104AB009203AAFEF7E3
:1042E0006BF99DF80B20DDE904130F2A94BF00221F
:1042F0000122521843F100030520C4E90223FEF70E
:1043000019FC06B010BD40F2DF71702000F024FAF5
:104310004FF4FC61702000F01FFA00BF100D002068
:10432000180D002038B5254B93F800E0BEF1200FA2
:104330003FD0234D6B7C95F811C003EB43035FFA2C
:104340008CFCEB5C202B25D01E4C4FEA4C1C05E06E
:10435000634405EB43035B7F202B1BD003EB43023D
:1043600004EBC202917D8142F2D80EEB4E0E04EBBB
:10437000CE04D4E90213206940189168D26843F151
:104380000003C41C43F10003A14272EB030304D2F7
:10439000002038BD4FF0FF3038BD0B4B081A0338F2
:1043A0001C68FEF799F804F132038342F0D8001B31
:1043B00038BD40F61B01702000F0CEF9100D002032
:1043C000700D0020100A0020180D00202DE9F04F7C
:1043D0008C4B1D7887B0202D019000F00D81DFF807
:1043E0002892DFF8288299F8113003EB4303064640
:1043F000D8F8000019F80340D8F8183003930DF1ED
:104400001302D8F8203002938B46304405A9FEF7FA
:10441000A7F87F4BA6F132029A426AD8DFF8F4A1DE
:10442000059BD8F81C6005EB45050AEBC505A86897
:104430001B182869D8F818501818401B20F07F4323
:10444000B3F5000F55D899F81120C8F82000202C9A
:1044500088F826B0D2B200F0C2805201DC4620219A
:10446000934604EB440240190AEBC20246F1000EE7
:10447000D2E90263864273EB0E034FEA440746D348
:10448000537D012B03D098F82530012B35D0052022
:104490000091FEF7F5FA009999F811004FF0FF32FC
:1044A0004FF0FF332029C8E90223C0B240F09580C5
:1044B00000EB4000202419F80030524A99F81110FE
:1044C000127802EB411209EB42025377D8F8003020
:1044D000019A1344C8F80030FF2389F80630202CD5
:1044E00035D04D4B187800F047FA002007B0BDE8F2
:1044F000F08F012007B0BDE8F08F0091FDF7E0FDDF
:10450000751B013085420099C1DA98F826C027440E
:104510000AEBC707BB7D63450DD90BEB040309EB21
:1045200043035B7F202B16D02146D8E90656D8F8E6
:1045300020001C4695E7DDE90231D8F818205B1809
:104540009B1A0220C8F8203007B0BDE8F08F002089
:1045500007B0BDE8F08F0520FEF792FA4FF0FF326A
:104560004FF0FF3399F81100C8E90223C0B204EB01
:10457000401309EB430346005A7F00EB400341011F
:1045800019F803A009F803204FF0050C5346CF1883
:1045900009EB47071A4694421D4687F81CC07B7FEB
:1045A000F5D137184F440A4497F802E0BEF1200FC6
:1045B0005FFA8EFC18BF8C44304418BF09EB4C0CDA
:1045C00009EB420248444FF0200114BF8CF81DA0B3
:1045D00087F801A0857051776FE70C46C7E7052083
:1045E000FEF74EFA99F811004FF0FF324FF0FF330B
:1045F000C8E90223C0B25BE740F64401702000F036
:10460000ABF800BF100D0020700D0020180D002029
:10461000CE3F420F100A0020480D0020BFF34F8FFD
:104620000549064BCA6802F4E0621343CB60BFF34E
:104630004F8F00BFFDE700BF00ED00E00400FA056A
:10464000094B01225A604FF0FF32C3F80823074B91
:104650004FF48042C3F88020BFF34F8FBFF36F8FBA
:10466000C3F88021704700BF00E0004000E100E097
:10467000094B01225A604FF0FF32C3F80823074B61
:104680004FF48052C3F88020BFF34F8FBFF36F8F7A
:10469000C3F88021704700BF00C0004000E100E087
:1046A000084B0022C3F8FC2F0122C3F8FC2F064B55
:1046B0000222C3F88020BFF34F8FBFF36F8FC3F880
:1046C000802170470010004000E100E0F8B51B4E6B
:1046D000337805460C46174663BB00F091F9FDF7A9
:1046E000C3F917487760002D18BF28463472FFF7CA
:1046F000D7FFFFF7BDFFFFF7A3FFFDF7F9FC054666
:10470000B0B9FFF7B5F8FDF7E5FC00F09BFE002C13
:104710000CDB04F01F026409A40004F1604404F5FA
:10472000614401239340C4F8803123600123337036
:104730002846F8BD4FF0FF35FAE700BF100E002005
:10474000FA52020008B572B6024B5B6803B1984793
:10475000FFF764FF100E00201FB572B6134B5D68A3
:104760008DB9FFF75BFFB2FBF6F2DCB20133002A32
:10477000F9D104F110036B4403F80C2C0A2234B96C
:1047800001A8A847EDE7024600230A26EDE7631ECD
:1047900004AEDCB256FA83F3B0FBF2F602FB16006D
:1047A000303003F80C0C3046E9E700BF100E002053
:1047B000074B93F90830002B09DB5A09012103F05C
:1047C0001F0301FA03F34032024941F822307047D7
:1047D000100E002000E100E0014B1878704700BF88
:1047E000100E00202DE9F84FDFF8C4A0314C324DF7
:1047F000DFF8C890074601269AF800805FFA88F82B
:10480000FF238AF80030B8F1000F01D08AF8013098
:10481000EFF3108272B600236660C4F80031C4F86A
:104820000431C4F8047526603AB962B605E0D4F8DC
:10483000043133B92B69DB0620D4D4F80031002BC6
:10484000F5D0D4F80431002BE2D1B8F1000F13D128
:104850009AF80130DBB28AF8018003214FF48042DC
:10486000C4F80813C4F80481C4F80081C9F8802191
:104870008AF80080002BBFD1BDE8F88F4FF4804349
:10488000C9F88031EFF3108B72B60323C4F80433F8
:10489000D4F8003113B9D4F804311BB1BBF1000FC7
:1048A000CBD1C2E700F0A9FEBBF1000FC5D1BCE738
:1048B0001C0E002000E0004000ED00E000E100E000
:1048C000FFF790BF1B4B4FF4805270B5C3F88020A8
:1048D000BFF34F8FBFF36F8F174D184C0021C5F8F2
:1048E0000011C3F880212669236943F01003236176
:1048F0000123C5F8043306F010062B60D5F800310B
:10490000A3B11EB9236923F0100323610A4B0122CE
:10491000D3F808055A60C3F808230022C3F8002121
:10492000044B4FF48052C3F8802170BD00F065FE47
:10493000E4E700BF00E100E000C0004000ED00E05F
:1049400038B50C49024605200138C0B2FF2803D112
:1049500048216920FFF700FF01EBC0031D7905F036
:10496000FF04002DF0D141F8302001225C719C71D0
:104970001A7138BD200E0020042808B503D958212B
:104980006920FFF7E9FE094B03EBC0000379012B17
:1049900001D05921F4E7437982790133DBB29A429D
:1049A00018BF4371BDE80840FFF702BF200E00208A
:1049B00070B5124C06250026013D15F0FF0500D10B
:1049C00070BD94F8281004EBC1031A79012A09D1AB
:1049D00058799A79904205D05A79D2B29A7154F89E
:1049E0003130984794F828300133DBB2042B94BF60
:1049F00084F8283084F82860DEE700BF200E00200D
:104A00004FF08052034BD2F830111960D2F83421A4
:104A10005A6070474C0E0020034B1868A0F10F033A
:104A200058425841704700BF4C0E0020034B186895
:104A3000A0F10A0358425841704700BF4C0E0020B5
:104A4000034B1868A0F10E0358425841704700BF4D
:104A50004C0E0020034B1868A0F110035842584137
:104A6000704700BF4C0E0020044B1868062803D086
:104A7000431C584258417047012070474C0E00209B
:104A8000034B1868A0F10D0358425841704700BF0E
:104A90004C0E0020034B1868A0F1080358425841FF
:104AA000704700BF4C0E002008B5FFF7BFFF20B1D4
:104AB000024B5868B0FA80F0400908BD4C0E002047
:104AC00008B5FFF7A9FF70B9FFF7B0FF58B9FFF7B6
:104AD000B7FF40B9FFF7C8FF044A054B002808BFDD
:104AE0001346184608BD024BFBE700BF00E7014034
:104AF0000C05004008B5FFF7B7FF08B3EFF31080CF
:104B000072B6104A1369116941F010011161A2F5E2
:104B1000406203F01003D2F80011D2F804210A43D6
:104B200000D040BF20BF00BF00BF00BF00BF23B9FF
:104B3000044A136923F01003136100B962B608BD7B
:104B400020BFFCE700ED00E02DE9F04184075FFAAB
:104B500081FE5FD0002A59D0034601E0002A55D0DB
:104B600003F801EB990702F1FF32F7D14EEA0E2468
:104B7000032A44EA04443ED9151FAE08172D06F156
:104B80000106C3F3800147D99846002940D048F870
:104B9000044B771A03EB810C79080CEBC101CCE9CB
:104BA00000440CF1080C6145F9D127F0010C08EB29
:104BB0008C016745CCEB8C7805EB880517D02F1F4F
:104BC000032F0C6013D9A5F10807032F4C600ED9F1
:104BD000A5F10C07032F8C6009D9A5F11007032F4D
:104BE000CC6004D9143D032D0C6188BF4C6102F0E8
:104BF000030203EB86034AB1013A83F800E005D0D3
:104C0000012A83F801E018BF83F802E0BDE8F081D3
:104C10001546BEE70346A9E719461546CFE700BF8C
:104C2000014B1B681B68184744000020014B1B68A0
:104C30005B68184744000020014B1B689B681847BD
:104C400044000020014B1B681B69184744000020EA
:104C500038B50420204CFFF765FB2568854228BF46
:104C6000054604212846FFF7B1FB30B10138C0B238
:104C7000012820D940F2431108E02368E068AB42E4
:104C80000DD1FFF713FB20B940F223116B20FFF782
:104C900063FDE268236822611344E36038BD054484
:104CA0006089E5600123281A2375FFF7FFFA68B9C8
:104CB00040F22D11EAE70123E06823756389C01AE9
:104CC000FFF7F4FA10B940F23B11DFE76289E368BD
:104CD0009B1A2361E2E700BF580E002008B50C4B79
:104CE0001A7802F0FF0312B15A1E1A4203D0DF21D4
:104CF0006B20FFF731FD19B1034207D1E421F7E73B
:104D000023EA00039B0601D1E821F1E708BD00BFBB
:104D1000480000200C4B10B501221A761A68DA619F
:104D20005A689A62094A93F8300002214FF482745B
:104D300011701C8403F11801FEF782FF18B9214697
:104D40006B20FFF709FD10BD580E00204800002021
:104D500070B5EFF3108572B6264C94F831600023DD
:104D6000012E84F8313006D0022E1DD0002E3BD10A
:104D700085F3108870BD85F3108894F8323003F005
:104D8000FF0123B14FF4A8716B20FFF7E5FC14205D
:104D9000FFF7A4FF184B84F832601B78012BE9D190
:104DA000BDE87040FFF7B6BF94F8322012B940F268
:104DB0006111E9E7104984F832300B78023BDBB22D
:104DC0001E2B0ED8012202FA03F30C4A1342CFD154
:104DD00044F20402134204D020230B70FEF780FD3E
:104DE000C6E740F27D11CFE785F3108840F2A311AA
:104DF000CAE700BF580E00204800002041000040D4
:104E000070B5144C94F8335025B140F286216B20D4
:104E1000FFF7A2FC104B84F8325001261E700F4B96
:104E20000F484FF4C852C4E900230E4BA360FFF7AC
:104E300087FD294684F834000B48FEF7ADFE202894
:104E400084F8300002D140F29521E0E784F8336025
:104E500070BD00BF580E002048000020FF3F420FE9
:104E6000514D00000500B700D94F000008B5104BA8
:104E700093F8332022B940F2F5216B20FFF76CFC48
:104E8000EFF3108172B693F8312022B1012A0DD0D0
:104E900040F20531F1E7022283F8312001B962B610
:104EA00093F83400BDE80840FFF766BD0022F3E741
:104EB000580E00200B4B93F8333010B523B94FF444
:104EC00045716B20FFF748FCEFF3108472B6064B78
:104ED0001A78102A03D108221A70FEF701FD04B9CE
:104EE00062B610BD580E00204800002070B5164B69
:104EF0001B78042B25D1154E337D1BB9738930687F
:104F0000C01A70BD00F04BFB10F11E0441F100050A
:104F1000FEF790FE33691B1841F100019C4275EBCE
:104F200001004FF000020CD2181B4FF0FF3361EB71
:104F30000501834272EB0103E3D2A6216B20FFF748
:104F40000BFC0020DDE700BF48000020580E0020C9
:104F500038B5144C94F8333023B940F2CA216B2091
:104F6000FFF7FAFBEFF3108572B694F8313023B1F6
:104F7000022B0DD040F2DD21F1E7012384F831301E
:104F800005B962B694F83400BDE83840FFF7F4BCC8
:104F9000054B1B780022042B84F83120F0D111F04E
:104FA0008DFEEDE7580E00204800002008B5094BA3
:104FB00019781029CAB207D0202A05D0042A04D1B2
:104FC00010221A7011F08AFE08BD4FF4E1716B20B7
:104FD000FFF7C2FB4800002070B50C46FDF79CFCB3
:104FE000062C48D8DFE804F00451512823645D0002
:104FF00001210220FFF772FE304B314A93F8321044
:1050000079B1042111701A68DA6000221A7593F8D8
:105010003130022B01D011F051FEBDE87040FFF796
:1050200017BE20231370BDE87040FEF759BC40F254
:105030000E216B20FFF790FB204E96F83230D3B153
:105040001F4B1B78042B17D100F0A9FA05460C461C
:10505000FEF7F0FD337D012B0BD13269121841F1BF
:105060000003954274EB030303D3BDE87040FFF7E0
:105070009DBF0CF09DFD70BD124B0222C3F8802035
:10508000BFF34F8FBFF36F8FF5E701210220FFF7CA
:1050900025FE0A4B93F8323033B1BDE87040FFF77C
:1050A00039BE01212820F2E7054B01221A70E2E700
:1050B000024B1B7D012BB0D1D7E700BF580E00205B
:1050C0004800002000E100E07BB972B90029BEBFB2
:1050D00000204FF0004106E008BF00281CBF6FF021
:1050E00000414FF0FF3000F057B8ADF1080C6DE90A
:1050F00004CE002909DB002B1ADB00F09BFADDF857
:1051000004E0DDE9022304B07047404261EB410155
:10511000002B1BDB00F08EFADDF804E0DDE9022352
:1051200004B0404261EB4101524263EB43037047DC
:10513000524263EB430300F07DFADDF804E0DDE961
:10514000022304B0404261EB41017047524263EBDD
:10515000430300F06FFADDF804E0DDE9022304B058
:10516000524263EB4303704753B94AB9002908BF61
:1051700000281CBF4FF0FF314FF0FF3000F00CB89B
:10518000ADF1080C6DE904CE00F054FADDF804E04E
:10519000DDE9022304B07047704700BF034613F8EF
:1051A000012B002AFBD1181A0138704708B5FFF708
:1051B00027FCBDE80840FCF757BC801A00F3070045
:1051C00038B540B20D4659B21446FCF73DFC0023F9
:1051D000287020446B7040B238BD73B5A0F10B0449
:1051E0000E46E1B20F29154603D94F216420FFF77F
:1051F000B3FA0DF1030332460420FCF7E1FB03464A
:1052000008B15821F2E704EB840404F665149DF913
:105210000300A2B201A9FCF7C3FB9DF804302B7078
:105220009DF805306B7002B070BD002303607047BD
:105230007047002070474FF0FF3070474FF0FF304D
:10524000704770474FF0FF307047002070470020D4
:1052500070470023037070470022FFF7AEBF0020A5
:1052600070474FF0FF3070474FF0FF3070474FF0FE
:10527000FF3070477047C0B270474FF08043012243
:105280001A6070474FF08043D3F8080400F0010023
:1052900070474FF08043D3F8140400F001007047CA
:1052A0004FF08043D3F81C0400F0030070474FF028
:1052B00080410246D1F81804D1F8181410F4803057
:1052C00004D001F00300831A58425841704708B5D2
:1052D000FFF7EAFB28B14FF080430222C3F8342CD9
:1052E00008BDFFF7C1FB0028F5D1FFF7D3FB00286D
:1052F000F1D1F5E7FCF70ABC38B5054691F827006F
:105300000C46FEF77DFC18B9E7216A20FFF724FA66
:105310000023A38484F826300921236A284698476D
:1053200018B103780BB1EB21EFE738BD426808B53F
:10533000034611441A785960012AA1F1500006D1A0
:10534000FEF7B4FF40B9CB216A20FFF705FAFEF75C
:10535000ADFF08B9D021F7E708BDF8B504460E4601
:1053600019B9012384F829303BE00D78032DF8D8D2
:10537000DFE805F0390212154868C72802D8002571
:105380002846F8BD0421FFF721F80028F7D17168FD
:105390002046FFF7CBFFF3E7FCF71EFFF0E790F89E
:1053A0002470F7B94D682846FCF7EAFE0028D8D0EB
:1053B0002B78D3B9012222702B79003B18BF01232F
:1053C00063726B79002B0CBF022304232372AB683A
:1053D0006F336360EB682361032384F8263084F81D
:1053E0002520FCF7F9FE0225CAE794F82630052BA4
:1053F00004D040F28F116A20FFF7AEF927702B79A5
:1054000094F82700003B18BF012363726B79002BCF
:105410000CBF022304232372EB68A9686F33636017
:10542000D4E906325B1842EBE172C4E9043204238A
:1054300084F826302146FEF703FC0028D1D140F243
:105440009111D8E770B5FDF71DF8002405462646F2
:10545000E0B2854200D870BDFDF71AF801348684A9
:1054600080F82660F4E7F8B504460D46FDF70AF823
:1054700000270646F8B2864204D8082D0CD96FF0F2
:10548000150008E0FDF704F890F826300137002BEE
:10549000F0D04FF0FF30F8BD2CB129462046BDE8D2
:1054A000F840FDF703B821462046F8E738B5054631
:1054B000FCF7EEFF014688B190F824408CB990F8D3
:1054C000263073B1013B012B04D82846FFF714FFA7
:1054D000204638BD012380F82430F9E76FF0010041
:1054E000F7E76FF02200F4E770B50D46FCF7D0FF48
:1054F0000446002848D090F82660731E012B49D836
:10550000002D44D02846FCF73BFE00283FD02B78E6
:10551000FBB9012323702B79003B18BF0123637271
:105520006B79002B0CBF022304232372AB686F330B
:105530006360EB682361032394F8270084F8263026
:105540002146FEF77DFB40BB4FF42F716A20FFF729
:1055500003F9022E1ED1002323702B79003B18BFC4
:10556000012363726B79002B18BF04262672EB6847
:10557000A9686F336360D4E906325B1842EBE172CD
:10558000C4E904320423D7E76FF0010070BD6FF067
:105590001500FBE76FF02200F8E70020F6E7FDF7C3
:1055A000C1B907B56846FDF7B1F8DDE900024FF073
:1055B00080730021E2FB030103B05DF804FB0346A6
:1055C000002018707047EFF3108272B60378012143
:1055D000DBB2017002B962B6012B0CBF6FF0220082
:1055E00000207047EFF3108372B60022027003B9F7
:1055F00062B600207047FFF7DBB9FFF77BBAFFF711
:1056000079BA00280CBF6FF0150000207047002009
:105610007047072303700020704700207047002068
:10562000704710B50446FFF761FCA04294BF00200C
:10563000012010BD2DE9F04786468C460846089E9D
:10564000154674461946002B40F0C2808542B2FAD6
:1056500082F245D94AB1C2F1200300FA02FC2EFAC7
:1056600003F3954043EA0C0C94404FEA154EA8B260
:10567000BCFBFEF8230C0EFB18CC08FB00F943EA38
:105680000C43994528D9EB1808F1FF3704D2994506
:1056900002D9A8F102072B44A3EB0903A4B2B3FB80
:1056A000FEFC0EFB1C330CFB00F044EA0344A0425A
:1056B00014D92C190CF1FF3304D2A04202D9ACF159
:1056C00002032C44241A43EA07401EB1D4400023AD
:1056D00034607360BDE8F0874746DDE76346F1E775
:1056E00092BB431B01214FEA154EAFB2B3FBFEFC48
:1056F000200C0EFB1C330CFB07F840EA03439845D3
:1057000062D9EB180CF1FF3004D2984502D9ACF104
:1057100002002B44A3EB0803A4B2B3FBFEFC0EFB78
:105720001C330CFB07F744EA0344A7424ED92C195B
:105730000CF1FF3304D2A74202D9ACF102032C448E
:10574000E41B43EA0040C0E7C2F1200320FA03F162
:10575000954090402EFA03F303434FEA154EAFB243
:10576000B1FBFEFC0EFB1C10190C0CFB07F841EA08
:105770000041884504FA02F422D969180CF1FF307F
:1057800004D2884502D9ACF102002944A1EB0801FA
:105790009BB2B1FBFEFC0EFB1C110CFB07F743EAAE
:1057A00001439F420ED9EB180CF1FF3104D29F4206
:1057B00002D9ACF102012B44DB1B41EA004192E724
:1057C0006046E3E76146F7E76046A3E76346B7E76D
:1057D000834206D916B9002108467BE7C6E900E0F6
:1057E000F9E7B3FA83F78FB9834201D3724508D83A
:1057F000BEEB020460EB030301209C461EB90021AE
:1058000068E73846FAE7C6E9004CF8E7C7F1200C2C
:10581000BB4022FA0CF41C432EFA0CF120FA0CF3D4
:10582000B84001434FEA14490EFA07F5B3FBF9F803
:105830001FFA84FE09FB18300B0C08FB0EFA43EA32
:1058400000439A4502FA07F240D9E31808F1FF3005
:1058500004D29A4502D9A8F102002344A3EB0A031B
:1058600089B2B3FBF9F809FB183308FB0EFE41EAD5
:1058700003418E452CD9611808F1FF3304D28E45BF
:1058800002D9A8F10203214443EA0040A0FB029898
:10589000A1EB0E014145CE46434602D306D14D450C
:1058A00004D2B9EB020E68EB04030138002EA6D037
:1058B000B5EB0E0261EB030101FA0CFC22FA07F3CF
:1058C0004CEA0303F940C6E9003198E74046C5E7D2
:1058D0004346D9E7000000002DE9F04F93F810800F
:1058E000046987B01F46B8F17D0FDB6803938146DA
:1058F0000E46154600F22C8108F1020304F2196AE3
:10590000039984F81836424650461FF0DBF804F538
:10591000C06B58460FF094FC022E53D005D9F31EED
:10592000012B6AD96FF08505ADE00023ADF8153085
:1059300095F85B30C3F34002C3F380038DF8113058
:1059400001238DF81330884B8DF8102093F8C4365E
:105950008DF8143006F0010604A904F5C3608DF833
:10596000126009F001F9002800F091807E4BD3F815
:10597000BC361BB13A460021484698474FF0FF33EA
:105980004FF0FF3258460FF035FC4246039851461F
:105990001FF098F894F8C22695F85B3062F3410343
:1059A00085F85B3094F8C326DBB262F3820385F896
:1059B0005B3094F89836052B69D8DFE803F06B620A
:1059C000C6CC68C60023ADF8143095F85B30C3F33D
:1059D0004002C3F380038DF8113001238DF812309B
:1059E000614B8DF8102093F8C4368DF8133004A95C
:1059F00004F5C36009F0EAF8B5E70023CDF81330E9
:105A000095F85B30C3F34002C3F380038DF8113087
:105A1000331F5E425E418DF810208DF812601AF03F
:105A200005FA01238DF814304F4B8DF8130093F8CD
:105A3000C4368DF81530D5E908024C4B83424FF03F
:105A40000203934118D34A4BA0FB030103FB02114D
:105A5000AB6AC01841F100014FF47A720023FFF7DE
:105A600033FB1BF07FFE0B4604A90246009104F5B0
:105A7000C3601AF0FCF976E74FF0FF306FF0004199
:105A8000EAE76FF00F05284607B0BDE8F08F6FF02A
:105A90000405F8E7D4F8A456002DF4D0D4F8A836BD
:105AA000D4F8AC2613434AD02D7820680022002376
:105AB000CDE9002300231A46294603F099FD064646
:105AC00000283FD0D4F8A4162A46013119F081F9F4
:105AD000002831DB94F8B03686F8593094F9B136A5
:105AE000AE339BB2FE2B28BFFE2386F85A30D4F883
:105AF000A806D4F8ACC64FF47A75A0FB050105FBE7
:105B00000C1117A3D3E90023FFF7DEFAC6E9080159
:105B1000B262304618F0E6FE2068314607F0CCFD50
:105B20000025304618F08BFED4F8A4061AF0CDF903
:105B30000023C4F8A436A6E76FF00B05F1E76FF079
:105B40002205F1E76FF00B05EEE76FF022059AE70B
:105B50006FF0790597E76FF0680594E7AFF3008081
:105B600000CA9A3B00000000C00E0020037DC12542
:105B700000CA9A3B000000002DE9F34706464FF0AB
:105B8000FF384FF0FF3900F5886A4FF0FF324FF0D1
:105B9000FF3350460FF0C8FA43681F7804460023CD
:105BA0001A463946CDE90089306803F021FD616865
:105BB0003A460131054619F00CF90746002835D15F
:105BC000237C85F8593094F91130AE339BB2FE2B0B
:105BD00028BFFE2385F85A30A27C95F85B3062F32B
:105BE000000385F85B30A068D4F80CE04FF47A71BC
:105BF000A0FB010C01FB0EC111A3D3E90023FFF7A9
:105C000063FAC5E90801AA62E27C95F85B3062F3A9
:105C1000C30385F85B303068294617F037FF00284A
:105C200004DB606867601AF050F9AEE70023606833
:105C300063601AF04AF9284618F001FEA5E700BF94
:105C400000CA9A3B000000002DE9F8433E4D3F4C4E
:105C50002B683F485B683F4F9847A3883A68023BF0
:105C600013822B688046A0795E6907F087FC0146A5
:105C70003748B047237F384EC3F30002D6F8009070
:105C8000C3F300135B0043EA820399F85B2022F020
:105C90000602134318F4807F89F85B3021D06369D2
:105CA000FBB1206918441AF00CF825A3D3E90023AE
:105CB000FFF70AFAC9E90801C9F82820A07907F016
:105CC0007DFC2B6832689C693B6804212048A04712
:105CD000431D1CD0E0B110F1230F0CBF0E200F208C
:105CE00016E0217FA07911F004041ED007F066FCB5
:105CF00018F0100F2B6804D09C6932683B680221B1
:105D0000E4E79B681248984748B1421DE3D10B2055
:105D1000124B1870BDE8F843042007F087BC2B68CD
:105D200032689C693B680146D0E707F047FC2B6866
:105D300032689D6906483B682146A847C8E700BF0E
:105D400000CA9A3B00000000F4500020F01A002026
:105D500048510200F8500020FC500020D96100207A
:105D6000014B1B68184700BF00010020014B186061
:105D7000704700BF0001002007B50B460021024616
:105D80000091034800F080F803B05DF804FB00BF09
:105D9000615D000030B587B00025CDE90301044600
:105DA000009503A90548059500F06EF8DDE904307B
:105DB0009842B8BF255407B030BD00BFB1CE010036
:105DC000F0B5094E016802460A2700200B46013152
:105DD0001C78355D6D0701D41360F0BD07FB0043EF
:105DE000A3F13000F2E700BFAC6402002DE9F84FE8
:105DF00015469A46D378234A12F803B06F2B814692
:105E00000F460BF0030B2BD026D8582B0CBF1026B7
:105E10000A26DDF828803246002348463946FFF737
:105E2000A3F9092A08F1FF38D4B21ED83034B1459D
:105E3000E4B277F1000788F8004001D3D04511D8CB
:105E40002B789B0605D5082E15D1AB7843F00803B7
:105E5000AB704046BDE8F88F03F0F703702BD5E731
:105E60000826D6E781460F46D5E7BBF1010F0CBFE8
:105E700037345734DBE7102EEBD1AB7843F0100307
:105E8000E6E700BFAC6402002DE9F04F97B08A4608
:105E9000039016461C460025307808B9284656E37C
:105EA00025280AD0039B514698470028C0F24F830B
:105EB000731C01350493049EEEE71822002110A8FC
:105EC0001EF028FE7378252B00F0A3800023711CA0
:105ED00098469E469C4618460F4611F8012B2B2AE1
:105EE00000F0C68000F2BD80202A00F0C480232A82
:105EF00000F0C4802BB19DF8483043F040038DF88A
:105F00004830B8F1000F05D09DF8483043F0200329
:105F10008DF84830BEF1000F05D09DF8483043F0B1
:105F200010038DF84830BCF1000F05D09DF84830C3
:105F300043F008038DF8483028B19DF8483043F00D
:105F400004038DF848309DF8483003F0440144299B
:105F500003D16FF386138DF848309DF848300997C8
:105F600043F080032A2A8DF8483040F08C809DF859
:105F7000493043F001038DF849307B1C1A782E2AF2
:105F80009DF849200CBF0121002161F341028DF8E9
:105F900049200CD15A1C09925A782A2A40F0838051
:105FA0009DF8492042F004028DF8492002331A7806
:105FB0006C2A00F0A48000F28680682A00F08C80B1
:105FC0006A2A00F0A5804C2A00F0AA801A4612F82E
:105FD000013B0492782B9DF849208DF84B3000F25C
:105FE00017816D2B00F2A980692B00F21181572BCC
:105FF00000F2BE80412B03D0453B022B00F208810A
:106000009DF84A30042262F302038DF84A300123DE
:10601000CAE08DF84B30B31C04939DF84930D90782
:1060200040F1FD8054F8048BB8F1000F07DA9DF8B9
:10603000482042F004028DF84820C8F100085A07B1
:1060400040F1F68054F804BBBBF1000F80F2F580FC
:106050009DF849306FF341038DF849304FF0FF3B15
:10606000EBE02D2A0DD0302A7FF444AF012333E733
:106070004FF0010C30E74FF0010E2DE74FF0010813
:106080002AE7012028E709A8FFF79AFE099BBB42EF
:106090003FF474AF9DF848201390C00F60F34102A5
:1060A0008DF848206AE709A8FFF78AFE9DF8483076
:1060B0001490C3F3400242EAD07262F341038DF8B8
:1060C0004830099B73E7742A26D07A2A7FF47EAF82
:1060D0009DF8492006210CE05A78682A9DF849204D
:1060E00006D1012161F3C6028DF8492002336DE724
:1060F000022161F3C6028DF84920013366E75A7820
:106100006C2A9DF8492001D10421EBE70321F0E737
:106110009DF849200521ECE79DF849200721E8E793
:10612000BDF8482022F4F04222F0020242F48042FC
:1061300042F00202ADF84820DFE76E3BD9B20123FE
:106140008B4040F282410B4238D113F0240F52D1E0
:10615000DF075DD59DF84A30032161F302038DF816
:106160004A3002F07803A3F14000434243411BE070
:10617000A3F15801C9B2012000FA01F111F4624FF4
:106180007FF43EAF40F6010739421DD111F4043FC0
:106190003ED09DF84A3060F3020302F07802402AB4
:1061A0008DF84A3034D000239DF84820C2F34001D6
:1061B0000B4363F341028DF848202EE79DF84A30E7
:1061C000022161F30203E8E79DF84A10022002F081
:1061D000780260F30201402A8DF84A1002BF9DF850
:1061E000481041F001018DF84810632BDBD1131EDC
:1061F00018BF0123D8E79DF84A30032161F3020359
:1062000012F0780F8DF84A3014BF01230023CBE73A
:106210009DF8483043F001038DF84830C3E79DF9FD
:106220004820002AB4BFDDF84C804FF0FF3806E765
:106230009F077FF513AFDDF850B09DF8491000239C
:10624000CDE913339DF84A3003F00703012BC1F366
:10625000C30132D1CB1E042B04D8DFE803F0204564
:1062600045202000236801294FEAE372CDE910326E
:106270001BD19DF94030DA17CDE9103204349DF876
:10628000483013F003074FD0049B03983246514621
:1062900016F044FE0028C0F25A8105440BE654F87B
:1062A000043BDA17CDE91032E9E70229E6D11AB248
:1062B00043F3C033CDE91023E0E7022B24D1CB1EFA
:1062C000042B04D8DFE803F0181010181800012977
:1062D00054F8043B4FF0000214D00229CDE91032EB
:1062E000CDD19BB21093CAE7073424F00704F4E839
:1062F0000223CDE91023C2E754F8043B1093002396
:106300001193BCE7DBB2CDE7042B08D1073424F0AE
:106310000704D4E900230834CDE91023AFE7032BA9
:10632000ADD154F8043BDDE79DF84B0078283FF6EB
:10633000C2AD62281ED8252850D058287FF4BBADA6
:106340000DF13E030093DDE910010AAB12AAFFF73D
:106350004DFDBBF1000F814680F2C280B9F1000F04
:106360003FF4A9AD0DF13E06A6EB0903002F7BD04B
:10637000013379E0633815283FF69DAD01A252F84C
:1063800020F000BF57640000B5640000B75E000055
:10639000B75E0000B75E0000B75E0000B5640000A5
:1063A000B75E0000B75E0000B75E0000B75E000099
:1063B00003650000DB64000015640000B75E0000A8
:1063C000B75E0000ED630000B75E0000DB64000014
:1063D000B75E0000B75E0000DB640000039B51461F
:1063E00098470028C0F2B380013564E5BBF1000F87
:1063F000DDF840900ADB594648461EF027FCB9F10B
:10640000000F3FF458AD09EB000620E04846FEF7C8
:10641000C5FEF8E71098002800F087800DF13E06D1
:106420000AAB009612AA0021FFF7E0FCBDF84A3043
:1064300003F0EF0343F4F04343F01003BBF1000F0C
:106440008146ADF84A304ADA00283FF434ADA6EB75
:106450000903002708E0109B8DF8283000270DF174
:1064600029060DF1280901239DF84A1011F01002A8
:10647000069260D00233139A059213444A0644BF31
:1064800014995B18B8F1000F6EDDA8EB03089DF8B6
:1064900048305807C3F3800B66D459065AD53FB12C
:1064A000039B514638469847002850DB01355F462C
:1064B000302350E01E075CBFC3F300135F01DDE92A
:1064C000102348BF2B27002BBFF63AAF524263EB95
:1064D0004303CDE910232D2732E7002730E70027BB
:1064E0009DF848100DF13E03A3EB09036FF38611ED
:1064F0009B458DF848107FF631AFABEB0303139348
:106500002CE7109B07293FF6D6ACDFE801F00C041E
:10651000060C08080C0C1D70CDE41D80CBE4EA17B6
:10652000C3E90052C7E41D60C5E4314E0746A6F139
:106530000509052398E7080748BF01339BE718467C
:1065400007935146039B98470028079B04DA17B02E
:10655000BDE8F08F2023C346594600290BF1FF3BCD
:10656000EDDC45446D1AD84637B1039B5146384699
:1065700098470028EBDB01359DF84A30DA0601D454
:106580001B0706D5039B5146302098470028DEDBC9
:106590000135069B3BB19DF84B00039B5146984744
:1065A0000028D4DB0135059F2F4406E0039B5146AC
:1065B000302098470028CADB01357B1B002BF5DC17
:1065C000039833464A46514616F0A8FC0028BEDB25
:1065D0000544A844A8EB0503002B7FF76CAC039B94
:1065E0005146202098470028B1DB0135F2E700BF73
:1065F000795E020008B50446EFF31183402383F36C
:106600001288BFF36F8F06F02BFD204602F0D6F8FC
:10661000024816F05FFC17F010F8FCE77A5E020003
:106620002DE9F047858B04462807904611D40229AE
:1066300005F0070540F0CC80204616F0A1FC78B1AB
:106640000138A18B042811D8DFE800F0C2106D8555
:10665000950001290CBF45F0100545F02005A583E4
:1066600088F31188BFF36F8FBDE8F08701F0070A48
:10667000AA4500F0A5800027B9463E46A368002B36
:1066800000F0BC8041F00801A18388F31188BFF3BA
:106690006F8FA168002900F0BA800D68002900F012
:1066A000B680D1F80480334652462046C047002DBC
:1066B00076D02B6829461D46F0E701F007035A1FE4
:1066C000012A1BD8002221F00701062B276889B276
:1066D000C4E9002209D13B4603E0E28B0132E283A8
:1066E0001B68002BF9D141F00201A183204616F06E
:1066F00047FC00287AD041F0200176E0042B0AD133
:1067000021F0070189B2A183204616F039FC10B1AF
:1067100041F02001A183A18B01F0070AAA454FD0C7
:106720000027B946AAE7236921F0070141F00601D5
:10673000062DD3F80090A1832DD1B9F1000F3FD0E1
:1067400041F00801A18388F31188BFF36F8F3A49A4
:106750002046C84729E021F00701236941F00401E0
:1067600089B2042DD3F80490A183E6D000273E46D9
:106770004FF0040A82E721F00701236941F0050187
:1067800089B2052DD3F80890A183D6D000273E46C4
:106790004FF0050A72E700273E464FF0060A6DE704
:1067A0002B4687E7B9F1000FD1D1EFF311884023D1
:1067B00083F31288BFF36F8FA38B23F00803A383A7
:1067C000A58BEA062ED525F01003A38305F0070557
:1067D000A669A18B002EBFF670AF00232768C4E91D
:1067E000003321F0070141F00101A183A18B01F0E9
:1067F000070AAA454FF000097FF440AF002F9CD054
:1068000041F00801A18388F31188BFF36F8F002F37
:10681000C8D03D68394633465246204616F0DCFB68
:106820002F46F4E7AB067FF51BAF25F02003A383CB
:1068300005F0070500E700BF05D00100014B03602C
:106840000020704748530200F0B40C4B0C4E5F6AB6
:106850000C4BB34203D36FF08500F0BC70475D680A
:10686000BD4209D31C693CB195F802C00579AC451D
:1068700002D12346F0BC18472433EAE7E039002070
:1068800064090020400900202DE9F047134CDFF88F
:106890005080DFF8509005460E461746444503D316
:1068A0006FF08500BDE8F0876268D9F824309A421D
:1068B00012D3A36983B190782979884205D13A46E9
:1068C00031462846BDE8F04718475279012A03D1DE
:1068D0003A463146284698472434DFE740090020ED
:1068E00064090020E03900202DE9F0410B4CDFF86D
:1068F000308005460E461746444502D36FF08500AA
:1069000009E063690BB92434F6E73A463146284674
:1069100098470028F7D1BDE8F08100BF400900206A
:106920006409002010B5044618F099FD10F1780FA5
:1069300000D050B9054A204616F0F0FCD2F8C43019
:1069400023EA0003C2F8C430002010BDE039002063
:10695000024B00221A605A60704700BF9B3A002029
:1069600070B50B4B0B4CA34201D3002070BD196ACC
:106970001E7F00220439D5B2AE4201D82433F2E79B
:10698000013211F832508542F5D10120EEE700BF07
:10699000400900206409002008B509480378C3F3C2
:1069A00041130A3350F823303BB100F1080200F1E3
:1069B00010019847C043C00F08BD1846FCE700BF50
:1069C000E039002004282DE9F14FDFF898900446C3
:1069D0000F4616D001282DD1DFF88C8098F8B930F9
:1069E00043B300F0D9FD214D4D4520D2D5F820B05C
:1069F0004FF0000A2B7F5FFA8AF6B34204D82435A1
:106A0000F2E7FFF7A5FFE7E70BEBC6060AF1010A7D
:106A1000307918F024FD0246307916F07FFCD8F862
:106A2000C430002A23EA0003C8F8C430E2DA0023A5
:106A300088F8B9300D4D4D4508D30B4B1B6A6BB12F
:106A40003946204601B0BDE8F04F1847EB681BB14E
:106A50003A462146284698472435ECE701B0BDE880
:106A6000F08F00BF64090020E039002040090020B9
:106A700073B5C4B263060D468DF8074007D02046B3
:106A8000FFF76EFF78B10D4B93F8BA0058B10B4E7B
:106A9000204655B103F0AAFDF3691BB10DF10701C2
:106AA00008209847012002B070BD03F0C7FDF369CC
:106AB000002BF7D00DF107010920F2E7E0390020A3
:106AC00073B586788DF80060037942791C4C43EAEF
:106AD0000223ADF80230C378304603F003038DF88B
